{
  "_format": "hh-sol-artifact-1",
  "contractName": "ShippingInsurance",
  "sourceName": "contracts/ShippingInsurance.sol",
  "abi": [
    {
      "inputs": [],
      "stateMutability": "nonpayable",
      "type": "constructor"
    },
    {
      "anonymous": false,
      "inputs": [
        {
          "indexed": true,
          "internalType": "uint256",
          "name": "claimId",
          "type": "uint256"
        },
        {
          "indexed": true,
          "internalType": "uint256",
          "name": "policyId",
          "type": "uint256"
        },
        {
          "indexed": false,
          "internalType": "uint256",
          "name": "payoutAmount",
          "type": "uint256"
        }
      ],
      "name": "ClaimApproved",
      "type": "event"
    },
    {
      "anonymous": false,
      "inputs": [
        {
          "indexed": true,
          "internalType": "uint256",
          "name": "claimId",
          "type": "uint256"
        },
        {
          "indexed": true,
          "internalType": "uint256",
          "name": "policyId",
          "type": "uint256"
        },
        {
          "indexed": true,
          "internalType": "address",
          "name": "claimant",
          "type": "address"
        },
        {
          "indexed": false,
          "internalType": "uint256",
          "name": "claimAmount",
          "type": "uint256"
        }
      ],
      "name": "ClaimSubmitted",
      "type": "event"
    },
    {
      "anonymous": false,
      "inputs": [
        {
          "indexed": true,
          "internalType": "address",
          "name": "previousOwner",
          "type": "address"
        },
        {
          "indexed": true,
          "internalType": "address",
          "name": "newOwner",
          "type": "address"
        }
      ],
      "name": "OwnershipTransferred",
      "type": "event"
    },
    {
      "anonymous": false,
      "inputs": [
        {
          "indexed": true,
          "internalType": "uint256",
          "name": "policyId",
          "type": "uint256"
        },
        {
          "indexed": true,
          "internalType": "address",
          "name": "policyholder",
          "type": "address"
        },
        {
          "indexed": false,
          "internalType": "string",
          "name": "shipmentId",
          "type": "string"
        },
        {
          "indexed": false,
          "internalType": "uint256",
          "name": "coverageAmount",
          "type": "uint256"
        },
        {
          "indexed": false,
          "internalType": "uint256",
          "name": "premium",
          "type": "uint256"
        }
      ],
      "name": "PolicyCreated",
      "type": "event"
    },
    {
      "anonymous": false,
      "inputs": [
        {
          "indexed": true,
          "internalType": "uint256",
          "name": "policyId",
          "type": "uint256"
        },
        {
          "indexed": false,
          "internalType": "string",
          "name": "shipmentId",
          "type": "string"
        },
        {
          "indexed": false,
          "internalType": "enum ShippingInsurance.ShipmentStatus",
          "name": "newStatus",
          "type": "uint8"
        }
      ],
      "name": "ShipmentStatusUpdated",
      "type": "event"
    },
    {
      "inputs": [
        {
          "internalType": "uint256",
          "name": "",
          "type": "uint256"
        }
      ],
      "name": "claims",
      "outputs": [
        {
          "internalType": "uint256",
          "name": "claimId",
          "type": "uint256"
        },
        {
          "internalType": "uint256",
          "name": "policyId",
          "type": "uint256"
        },
        {
          "internalType": "address",
          "name": "claimant",
          "type": "address"
        },
        {
          "internalType": "uint256",
          "name": "claimAmount",
          "type": "uint256"
        },
        {
          "internalType": "uint256",
          "name": "timestamp",
          "type": "uint256"
        },
        {
          "internalType": "bool",
          "name": "approved",
          "type": "bool"
        },
        {
          "internalType": "bool",
          "name": "processed",
          "type": "bool"
        }
      ],
      "stateMutability": "view",
      "type": "function"
    },
    {
      "inputs": [
        {
          "internalType": "string",
          "name": "_shipmentId",
          "type": "string"
        },
        {
          "internalType": "uint256",
          "name": "_coverageAmount",
          "type": "uint256"
        },
        {
          "internalType": "uint256",
          "name": "_duration",
          "type": "uint256"
        }
      ],
      "name": "createPolicy",
      "outputs": [],
      "stateMutability": "payable",
      "type": "function"
    },
    {
      "inputs": [
        {
          "internalType": "uint256",
          "name": "_claimId",
          "type": "uint256"
        }
      ],
      "name": "getClaim",
      "outputs": [
        {
          "components": [
            {
              "internalType": "uint256",
              "name": "claimId",
              "type": "uint256"
            },
            {
              "internalType": "uint256",
              "name": "policyId",
              "type": "uint256"
            },
            {
              "internalType": "address",
              "name": "claimant",
              "type": "address"
            },
            {
              "internalType": "uint256",
              "name": "claimAmount",
              "type": "uint256"
            },
            {
              "internalType": "uint256",
              "name": "timestamp",
              "type": "uint256"
            },
            {
              "internalType": "bool",
              "name": "approved",
              "type": "bool"
            },
            {
              "internalType": "bool",
              "name": "processed",
              "type": "bool"
            }
          ],
          "internalType": "struct ShippingInsurance.Claim",
          "name": "",
          "type": "tuple"
        }
      ],
      "stateMutability": "view",
      "type": "function"
    },
    {
      "inputs": [],
      "name": "getContractBalance",
      "outputs": [
        {
          "internalType": "uint256",
          "name": "",
          "type": "uint256"
        }
      ],
      "stateMutability": "view",
      "type": "function"
    },
    {
      "inputs": [
        {
          "internalType": "uint256",
          "name": "_policyId",
          "type": "uint256"
        }
      ],
      "name": "getPolicy",
      "outputs": [
        {
          "components": [
            {
              "internalType": "uint256",
              "name": "policyId",
              "type": "uint256"
            },
            {
              "internalType": "address",
              "name": "policyholder",
              "type": "address"
            },
            {
              "internalType": "string",
              "name": "shipmentId",
              "type": "string"
            },
            {
              "internalType": "uint256",
              "name": "coverageAmount",
              "type": "uint256"
            },
            {
              "internalType": "uint256",
              "name": "premium",
              "type": "uint256"
            },
            {
              "internalType": "uint256",
              "name": "startTime",
              "type": "uint256"
            },
            {
              "internalType": "uint256",
              "name": "endTime",
              "type": "uint256"
            },
            {
              "internalType": "enum ShippingInsurance.InsuranceStatus",
              "name": "status",
              "type": "uint8"
            },
            {
              "internalType": "enum ShippingInsurance.ShipmentStatus",
              "name": "shipmentStatus",
              "type": "uint8"
            },
            {
              "internalType": "bool",
              "name": "claimProcessed",
              "type": "bool"
            }
          ],
          "internalType": "struct ShippingInsurance.InsurancePolicy",
          "name": "",
          "type": "tuple"
        }
      ],
      "stateMutability": "view",
      "type": "function"
    },
    {
      "inputs": [],
      "name": "getTotalClaims",
      "outputs": [
        {
          "internalType": "uint256",
          "name": "",
          "type": "uint256"
        }
      ],
      "stateMutability": "view",
      "type": "function"
    },
    {
      "inputs": [],
      "name": "getTotalPolicies",
      "outputs": [
        {
          "internalType": "uint256",
          "name": "",
          "type": "uint256"
        }
      ],
      "stateMutability": "view",
      "type": "function"
    },
    {
      "inputs": [
        {
          "internalType": "address",
          "name": "_user",
          "type": "address"
        }
      ],
      "name": "getUserPolicies",
      "outputs": [
        {
          "internalType": "uint256[]",
          "name": "",
          "type": "uint256[]"
        }
      ],
      "stateMutability": "view",
      "type": "function"
    },
    {
      "inputs": [],
      "name": "oracleAddress",
      "outputs": [
        {
          "internalType": "address",
          "name": "",
          "type": "address"
        }
      ],
      "stateMutability": "view",
      "type": "function"
    },
    {
      "inputs": [],
      "name": "owner",
      "outputs": [
        {
          "internalType": "address",
          "name": "",
          "type": "address"
        }
      ],
      "stateMutability": "view",
      "type": "function"
    },
    {
      "inputs": [
        {
          "internalType": "uint256",
          "name": "",
          "type": "uint256"
        }
      ],
      "name": "policies",
      "outputs": [
        {
          "internalType": "uint256",
          "name": "policyId",
          "type": "uint256"
        },
        {
          "internalType": "address",
          "name": "policyholder",
          "type": "address"
        },
        {
          "internalType": "string",
          "name": "shipmentId",
          "type": "string"
        },
        {
          "internalType": "uint256",
          "name": "coverageAmount",
          "type": "uint256"
        },
        {
          "internalType": "uint256",
          "name": "premium",
          "type": "uint256"
        },
        {
          "internalType": "uint256",
          "name": "startTime",
          "type": "uint256"
        },
        {
          "internalType": "uint256",
          "name": "endTime",
          "type": "uint256"
        },
        {
          "internalType": "enum ShippingInsurance.InsuranceStatus",
          "name": "status",
          "type": "uint8"
        },
        {
          "internalType": "enum ShippingInsurance.ShipmentStatus",
          "name": "shipmentStatus",
          "type": "uint8"
        },
        {
          "internalType": "bool",
          "name": "claimProcessed",
          "type": "bool"
        }
      ],
      "stateMutability": "view",
      "type": "function"
    },
    {
      "inputs": [],
      "name": "renounceOwnership",
      "outputs": [],
      "stateMutability": "nonpayable",
      "type": "function"
    },
    {
      "inputs": [
        {
          "internalType": "address",
          "name": "_oracleAddress",
          "type": "address"
        }
      ],
      "name": "setOracleAddress",
      "outputs": [],
      "stateMutability": "nonpayable",
      "type": "function"
    },
    {
      "inputs": [
        {
          "internalType": "string",
          "name": "",
          "type": "string"
        }
      ],
      "name": "shipmentToPolicy",
      "outputs": [
        {
          "internalType": "uint256",
          "name": "",
          "type": "uint256"
        }
      ],
      "stateMutability": "view",
      "type": "function"
    },
    {
      "inputs": [
        {
          "internalType": "address",
          "name": "newOwner",
          "type": "address"
        }
      ],
      "name": "transferOwnership",
      "outputs": [],
      "stateMutability": "nonpayable",
      "type": "function"
    },
    {
      "inputs": [
        {
          "internalType": "string",
          "name": "_shipmentId",
          "type": "string"
        },
        {
          "internalType": "enum ShippingInsurance.ShipmentStatus",
          "name": "_status",
          "type": "uint8"
        }
      ],
      "name": "updateShipmentStatus",
      "outputs": [],
      "stateMutability": "nonpayable",
      "type": "function"
    },
    {
      "inputs": [
        {
          "internalType": "address",
          "name": "",
          "type": "address"
        },
        {
          "internalType": "uint256",
          "name": "",
          "type": "uint256"
        }
      ],
      "name": "userPolicies",
      "outputs": [
        {
          "internalType": "uint256",
          "name": "",
          "type": "uint256"
        }
      ],
      "stateMutability": "view",
      "type": "function"
    },
    {
      "inputs": [],
      "name": "withdraw",
      "outputs": [],
      "stateMutability": "nonpayable",
      "type": "function"
    }
  ],
  "bytecode": "0x608060405234801561001057600080fd5b50600160005561001f33610024565b610076565b600180546001600160a01b038381166001600160a01b0319831681179093556040519116919082907f8be0079c531659141344cd1fd0a4f28419497f9722a3daafe3b4186f6b6457e090600090a35050565b611a67806100856000396000f3fe6080604052600436106101095760003560e01c80638da5cb5b11610095578063d3e8948311610064578063d3e894831461039f578063e7d5c46a146103d5578063e93b2a34146103f5578063ee5a11f214610408578063f2fde38b1461044057600080fd5b80638da5cb5b1461028d578063a888c2cd146102bf578063a89ae4ba1461036a578063d246dd691461038a57600080fd5b80633d36adc5116100dc5780633d36adc5146101a75780634c69c00f146101c75780635aef2447146101e75780636f9fb98a14610265578063715018a61461027857600080fd5b806316daa23b1461010e57806319ac4614146101365780632b07fce3146101635780633ccfd60b14610190575b600080fd5b34801561011a57600080fd5b50610123610460565b6040519081526020015b60405180910390f35b34801561014257600080fd5b50610156610151366004611425565b610470565b60405161012d9190611447565b34801561016f57600080fd5b5061018361017e36600461148b565b6104dc565b60405161012d9190611535565b34801561019c57600080fd5b506101a56106ba565b005b3480156101b357600080fd5b506101236101c23660046115dd565b610745565b3480156101d357600080fd5b506101a56101e2366004611425565b610776565b3480156101f357600080fd5b5061020761020236600461148b565b6107ef565b60405161012d919081518152602080830151908201526040808301516001600160a01b031690820152606080830151908201526080808301519082015260a08083015115159082015260c09182015115159181019190915260e00190565b34801561027157600080fd5b5047610123565b34801561028457600080fd5b506101a56108f9565b34801561029957600080fd5b506001546001600160a01b03165b6040516001600160a01b03909116815260200161012d565b3480156102cb57600080fd5b506103256102da36600461148b565b6005602081905260009182526040909120805460018201546002830154600384015460048501549490950154929491936001600160a01b039091169260ff8082169161010090041687565b6040805197885260208801969096526001600160a01b03909416948601949094526060850191909152608084015290151560a0830152151560c082015260e00161012d565b34801561037657600080fd5b506008546102a7906001600160a01b031681565b34801561039657600080fd5b5061012361090d565b3480156103ab57600080fd5b506103bf6103ba36600461148b565b610918565b60405161012d9a99989796959493929190611607565b3480156103e157600080fd5b506101a56103f0366004611727565b610a02565b6101a561040336600461177d565b610be2565b34801561041457600080fd5b506101236104233660046117cb565b805160208183018101805160068252928201919093012091525481565b34801561044c57600080fd5b506101a561045b366004611425565b61100a565b600061046b60035490565b905090565b6001600160a01b0381166000908152600760209081526040918290208054835181840281018401909452808452606093928301828280156104d057602002820191906000526020600020905b8154815260200190600101908083116104bc575b50505050509050919050565b6104e461139c565b816104ee60025490565b81111561053a5760405162461bcd60e51b8152602060048201526015602482015274141bdb1a58de48191bd95cc81b9bdd08195e1a5cdd605a1b60448201526064015b60405180910390fd5b6000838152600460209081526040918290208251610140810184528154815260018201546001600160a01b031692810192909252600281018054929391929184019161058590611808565b80601f01602080910402602001604051908101604052809291908181526020018280546105b190611808565b80156105fe5780601f106105d3576101008083540402835291602001916105fe565b820191906000526020600020905b8154815290600101906020018083116105e157829003601f168201915b50505091835250506003828101546020830152600483015460408301526005830154606083015260068301546080830152600783015460a09092019160ff169081111561064d5761064d6114f4565b600381111561065e5761065e6114f4565b81526020016007820160019054906101000a900460ff166003811115610686576106866114f4565b6003811115610697576106976114f4565b81526007919091015462010000900460ff16151560209091015291505b50919050565b6106c2611083565b47806107075760405162461bcd60e51b81526020600482015260146024820152734e6f2066756e647320746f20776974686472617760601b6044820152606401610531565b6001546040516001600160a01b039091169082156108fc029083906000818181858888f19350505050158015610741573d6000803e3d6000fd5b5050565b6007602052816000526040600020818154811061076157600080fd5b90600052602060002001600091509150505481565b61077e611083565b6001600160a01b0381166107cd5760405162461bcd60e51b8152602060048201526016602482015275496e76616c6964206f7261636c65206164647265737360501b6044820152606401610531565b600880546001600160a01b0319166001600160a01b0392909216919091179055565b61083c6040518060e00160405280600081526020016000815260200160006001600160a01b0316815260200160008152602001600081526020016000151581526020016000151581525090565b6003548211156108855760405162461bcd60e51b815260206004820152601460248201527310db185a5b48191bd95cc81b9bdd08195e1a5cdd60621b6044820152606401610531565b50600090815260056020818152604092839020835160e0810185528154815260018201549281019290925260028101546001600160a01b031693820193909352600383015460608201526004830154608082015291015460ff808216151560a084015261010090910416151560c082015290565b610901611083565b61090b60006110dd565b565b600061046b60025490565b60046020526000908152604090208054600182015460028301805492936001600160a01b039092169261094a90611808565b80601f016020809104026020016040519081016040528092919081815260200182805461097690611808565b80156109c35780601f10610998576101008083540402835291602001916109c3565b820191906000526020600020905b8154815290600101906020018083116109a657829003601f168201915b505050600384015460048501546005860154600687015460079097015495969295919450925060ff80821691610100810482169162010000909104168a565b6008546001600160a01b03163314610a675760405162461bcd60e51b815260206004820152602260248201527f4f6e6c79206f7261636c652063616e2063616c6c20746869732066756e63746960448201526137b760f11b6064820152608401610531565b6000600683604051610a79919061183c565b908152602001604051809103902054905060008111610acf5760405162461bcd60e51b815260206004820152601260248201527114da1a5c1b595b9d081b9bdd08199bdd5b9960721b6044820152606401610531565b600081815260046020526040812090600782015460ff166003811115610af757610af76114f4565b14610b3b5760405162461bcd60e51b8152602060048201526014602482015273506f6c696379206973206e6f742061637469766560601b6044820152606401610531565b60078101805484919061ff001916610100836003811115610b5e57610b5e6114f4565b02179055506002836003811115610b7757610b776114f4565b1480610b9457506003836003811115610b9257610b926114f4565b145b15610ba257610ba28261112f565b817fef863d5960ace7ec5ff2149322b1270ead2b103c9bccee7b561661a28e545ce88585604051610bd4929190611858565b60405180910390a250505050565b610bea611343565b6000835111610c3b5760405162461bcd60e51b815260206004820152601b60248201527f536869706d656e742049442063616e6e6f7420626520656d70747900000000006044820152606401610531565b60008211610c9a5760405162461bcd60e51b815260206004820152602660248201527f436f76657261676520616d6f756e74206d75737420626520677265617465722060448201526507468616e20360d41b6064820152608401610531565b60008111610cea5760405162461bcd60e51b815260206004820152601f60248201527f4475726174696f6e206d7573742062652067726561746572207468616e2030006044820152606401610531565b600683604051610cfa919061183c565b908152602001604051809103902054600014610d585760405162461bcd60e51b815260206004820152601860248201527f536869706d656e7420616c726561647920696e737572656400000000000000006044820152606401610531565b60006064610d67846002611899565b610d7191906118b6565b905080341015610dc35760405162461bcd60e51b815260206004820152601c60248201527f496e73756666696369656e74207072656d69756d207061796d656e74000000006044820152606401610531565b610dd1600280546001019055565b6000610ddc60025490565b9050604051806101400160405280828152602001336001600160a01b031681526020018681526020018581526020018381526020014281526020018442610e2391906118d8565b81526020016000815260200160008152600060209182018190528381526004825260409081902083518155918301516001830180546001600160a01b0319166001600160a01b039092169190911790558201516002820190610e859082611939565b50606082015181600301556080820151816004015560a0820151816005015560c0820151816006015560e08201518160070160006101000a81548160ff02191690836003811115610ed857610ed86114f4565b0217905550610100828101516007830180549192909161ff00191690836003811115610f0657610f066114f4565b02179055506101208201518160070160026101000a81548160ff02191690831515021790555090505080600686604051610f40919061183c565b90815260408051602092819003830190209290925533600090815260078252918220805460018101825590835291200181905534821015610fb357336108fc610f8984346119f9565b6040518115909202916000818181858888f19350505050158015610fb1573d6000803e3d6000fd5b505b336001600160a01b0316817f20a028c8a90fc12848027879825b8bca09785fc6d1398435a3cd59435776b60b878786604051610ff193929190611a0c565b60405180910390a350506110056001600055565b505050565b611012611083565b6001600160a01b0381166110775760405162461bcd60e51b815260206004820152602660248201527f4f776e61626c653a206e6577206f776e657220697320746865207a65726f206160448201526564647265737360d01b6064820152608401610531565b611080816110dd565b50565b6001546001600160a01b0316331461090b5760405162461bcd60e51b815260206004820181905260248201527f4f776e61626c653a2063616c6c6572206973206e6f7420746865206f776e65726044820152606401610531565b600180546001600160a01b038381166001600160a01b0319831681179093556040519116919082907f8be0079c531659141344cd1fd0a4f28419497f9722a3daafe3b4186f6b6457e090600090a35050565b6000818152600460205260409020600781015462010000900460ff16156111985760405162461bcd60e51b815260206004820152601760248201527f436c61696d20616c72656164792070726f6365737365640000000000000000006044820152606401610531565b6111a6600380546001019055565b60006111b160035490565b6003838101546040805160e08101825284815260208082018981526001808a0180546001600160a01b0390811686880190815260608701898152426080890190815260a0890186815260c08a0187815260008f815260059a8b90528c81209b518c559851978b0197909755925160028a0180546001600160a01b03191691861691909117905590519a88019a909a55985160048701559751949093018054915161ffff1990921694151561ff0019169490941761010091151591909102179092556007880180546201000162ff00ff1990911617905554915194955091939216916108fc84150291849190818181858888f193505050501580156112b9573d6000803e3d6000fd5b5060018301546040518281526001600160a01b0390911690859084907f3a30d1c4069e097873e77443df9683e8de5c7ba3674315b8670a0211e31301959060200160405180910390a483827f4dca51fe62778515537c102a1e70b6860ccf0d30595ecf313f2a901614b6f5058360405161133591815260200190565b60405180910390a350505050565b6002600054036113955760405162461bcd60e51b815260206004820152601f60248201527f5265656e7472616e637947756172643a207265656e7472616e742063616c6c006044820152606401610531565b6002600055565b6040518061014001604052806000815260200160006001600160a01b031681526020016060815260200160008152602001600081526020016000815260200160008152602001600060038111156113f5576113f56114f4565b815260200160008152600060209091015290565b80356001600160a01b038116811461142057600080fd5b919050565b60006020828403121561143757600080fd5b61144082611409565b9392505050565b6020808252825182820181905260009190848201906040850190845b8181101561147f57835183529284019291840191600101611463565b50909695505050505050565b60006020828403121561149d57600080fd5b5035919050565b60005b838110156114bf5781810151838201526020016114a7565b50506000910152565b600081518084526114e08160208601602086016114a4565b601f01601f19169290920160200192915050565b634e487b7160e01b600052602160045260246000fd5b6004811061108057634e487b7160e01b600052602160045260246000fd5b6115318161150a565b9052565b60208152815160208201526000602083015161155c60408401826001600160a01b03169052565b5060408301516101408060608501526115796101608501836114c8565b915060608501516080850152608085015160a085015260a085015160c085015260c085015160e085015260e08501516101006115b781870183611528565b86015190506101206115cb86820183611528565b90950151151593019290925250919050565b600080604083850312156115f057600080fd5b6115f983611409565b946020939093013593505050565b8a81526001600160a01b038a166020820152610140604082018190526000906116328382018c6114c8565b9150508860608301528760808301528660a08301528560c08301526116568561150a565b8460e08301526116658461150a565b836101008301528215156101208301529b9a5050505050505050505050565b634e487b7160e01b600052604160045260246000fd5b600082601f8301126116ab57600080fd5b813567ffffffffffffffff808211156116c6576116c6611684565b604051601f8301601f19908116603f011681019082821181831017156116ee576116ee611684565b8160405283815286602085880101111561170757600080fd5b836020870160208301376000602085830101528094505050505092915050565b6000806040838503121561173a57600080fd5b823567ffffffffffffffff81111561175157600080fd5b61175d8582860161169a565b92505060208301356004811061177257600080fd5b809150509250929050565b60008060006060848603121561179257600080fd5b833567ffffffffffffffff8111156117a957600080fd5b6117b58682870161169a565b9660208601359650604090950135949350505050565b6000602082840312156117dd57600080fd5b813567ffffffffffffffff8111156117f457600080fd5b6118008482850161169a565b949350505050565b600181811c9082168061181c57607f821691505b6020821081036106b457634e487b7160e01b600052602260045260246000fd5b6000825161184e8184602087016114a4565b9190910192915050565b60408152600061186b60408301856114c8565b90506118768361150a565b8260208301529392505050565b634e487b7160e01b600052601160045260246000fd5b80820281158282048414176118b0576118b0611883565b92915050565b6000826118d357634e487b7160e01b600052601260045260246000fd5b500490565b808201808211156118b0576118b0611883565b601f82111561100557600081815260208120601f850160051c810160208610156119125750805b601f850160051c820191505b818110156119315782815560010161191e565b505050505050565b815167ffffffffffffffff81111561195357611953611684565b611967816119618454611808565b846118eb565b602080601f83116001811461199c57600084156119845750858301515b600019600386901b1c1916600185901b178555611931565b600085815260208120601f198616915b828110156119cb578886015182559484019460019091019084016119ac565b50858210156119e95787850151600019600388901b60f8161c191681555b5050505050600190811b01905550565b818103818111156118b0576118b0611883565b606081526000611a1f60608301866114c8565b6020830194909452506040015291905056fea2646970667358221220cff1ccaaf139bb8b80648114fccbb92a66d8a169590197829a7b31a2b1f2ff1964736f6c63430008130033",
  "linkReferences": {},
  "deployedLinkReferences": {}
}